{
  "_format": "hh-sol-artifact-1",
  "contractName": "LendingCircle",
  "sourceName": "contracts/LendingCircle.sol",
  "abi": [
    {
      "inputs": [
        {
          "internalType": "address",
          "name": "_tokenAddress",
          "type": "address"
        }
      ],
      "stateMutability": "nonpayable",
      "type": "constructor"
    },
    {
      "anonymous": false,
      "inputs": [
        {
          "indexed": true,
          "internalType": "uint256",
          "name": "resourceId",
          "type": "uint256"
        },
        {
          "indexed": false,
          "internalType": "string",
          "name": "name",
          "type": "string"
        },
        {
          "indexed": false,
          "internalType": "uint256",
          "name": "stakeAmount",
          "type": "uint256"
        },
        {
          "indexed": false,
          "internalType": "uint256",
          "name": "maxConcurrentBorrows",
          "type": "uint256"
        }
      ],
      "name": "ResourceAdded",
      "type": "event"
    },
    {
      "anonymous": false,
      "inputs": [
        {
          "indexed": true,
          "internalType": "uint256",
          "name": "resourceId",
          "type": "uint256"
        },
        {
          "indexed": true,
          "internalType": "address",
          "name": "borrower",
          "type": "address"
        },
        {
          "indexed": false,
          "internalType": "uint256",
          "name": "stakeAmount",
          "type": "uint256"
        },
        {
          "indexed": false,
          "internalType": "uint256",
          "name": "deadline",
          "type": "uint256"
        }
      ],
      "name": "ResourceBorrowed",
      "type": "event"
    },
    {
      "anonymous": false,
      "inputs": [
        {
          "indexed": true,
          "internalType": "uint256",
          "name": "resourceId",
          "type": "uint256"
        },
        {
          "indexed": true,
          "internalType": "address",
          "name": "borrower",
          "type": "address"
        },
        {
          "indexed": false,
          "internalType": "uint256",
          "name": "refundAmount",
          "type": "uint256"
        },
        {
          "indexed": false,
          "internalType": "uint256",
          "name": "penaltyPaid",
          "type": "uint256"
        }
      ],
      "name": "ResourceReturned",
      "type": "event"
    },
    {
      "inputs": [
        {
          "internalType": "address",
          "name": "",
          "type": "address"
        },
        {
          "internalType": "uint256",
          "name": "",
          "type": "uint256"
        }
      ],
      "name": "activeBorrows",
      "outputs": [
        {
          "internalType": "address",
          "name": "borrower",
          "type": "address"
        },
        {
          "internalType": "uint256",
          "name": "resourceId",
          "type": "uint256"
        },
        {
          "internalType": "uint256",
          "name": "borrowTime",
          "type": "uint256"
        },
        {
          "internalType": "uint256",
          "name": "stakeDeposited",
          "type": "uint256"
        },
        {
          "internalType": "bool",
          "name": "isActive",
          "type": "bool"
        }
      ],
      "stateMutability": "view",
      "type": "function"
    },
    {
      "inputs": [
        {
          "internalType": "string",
          "name": "_name",
          "type": "string"
        },
        {
          "internalType": "enum LendingCircle.ResourceType",
          "name": "_type",
          "type": "uint8"
        },
        {
          "internalType": "uint256",
          "name": "_maxBorrows",
          "type": "uint256"
        },
        {
          "internalType": "uint256",
          "name": "_stake",
          "type": "uint256"
        },
        {
          "internalType": "uint256",
          "name": "_duration",
          "type": "uint256"
        },
        {
          "internalType": "uint256",
          "name": "_penalty",
          "type": "uint256"
        },
        {
          "internalType": "uint256",
          "name": "_reward",
          "type": "uint256"
        },
        {
          "internalType": "string",
          "name": "_metadataURI",
          "type": "string"
        }
      ],
      "name": "addResource",
      "outputs": [],
      "stateMutability": "nonpayable",
      "type": "function"
    },
    {
      "inputs": [
        {
          "internalType": "uint256",
          "name": "_resourceId",
          "type": "uint256"
        }
      ],
      "name": "borrowResource",
      "outputs": [],
      "stateMutability": "nonpayable",
      "type": "function"
    },
    {
      "inputs": [
        {
          "internalType": "uint256",
          "name": "_amount",
          "type": "uint256"
        }
      ],
      "name": "depositToRewardPool",
      "outputs": [],
      "stateMutability": "nonpayable",
      "type": "function"
    },
    {
      "inputs": [],
      "name": "owner",
      "outputs": [
        {
          "internalType": "address",
          "name": "",
          "type": "address"
        }
      ],
      "stateMutability": "view",
      "type": "function"
    },
    {
      "inputs": [
        {
          "internalType": "uint256",
          "name": "",
          "type": "uint256"
        }
      ],
      "name": "resources",
      "outputs": [
        {
          "internalType": "uint256",
          "name": "id",
          "type": "uint256"
        },
        {
          "internalType": "string",
          "name": "name",
          "type": "string"
        },
        {
          "internalType": "enum LendingCircle.ResourceType",
          "name": "resourceType",
          "type": "uint8"
        },
        {
          "internalType": "uint256",
          "name": "maxConcurrentBorrows",
          "type": "uint256"
        },
        {
          "internalType": "uint256",
          "name": "currentBorrowerCount",
          "type": "uint256"
        },
        {
          "internalType": "uint256",
          "name": "stakeAmount",
          "type": "uint256"
        },
        {
          "internalType": "uint256",
          "name": "borrowDuration",
          "type": "uint256"
        },
        {
          "internalType": "uint256",
          "name": "latePenaltyPerDay",
          "type": "uint256"
        },
        {
          "internalType": "uint256",
          "name": "onTimeReward",
          "type": "uint256"
        },
        {
          "internalType": "string",
          "name": "metadataURI",
          "type": "string"
        },
        {
          "internalType": "bool",
          "name": "active",
          "type": "bool"
        }
      ],
      "stateMutability": "view",
      "type": "function"
    },
    {
      "inputs": [
        {
          "internalType": "uint256",
          "name": "_resourceId",
          "type": "uint256"
        }
      ],
      "name": "returnResource",
      "outputs": [],
      "stateMutability": "nonpayable",
      "type": "function"
    },
    {
      "inputs": [],
      "name": "rewardPool",
      "outputs": [
        {
          "internalType": "uint256",
          "name": "",
          "type": "uint256"
        }
      ],
      "stateMutability": "view",
      "type": "function"
    },
    {
      "inputs": [],
      "name": "stakeToken",
      "outputs": [
        {
          "internalType": "contract IERC20",
          "name": "",
          "type": "address"
        }
      ],
      "stateMutability": "view",
      "type": "function"
    },
    {
      "inputs": [
        {
          "internalType": "uint256",
          "name": "_amount",
          "type": "uint256"
        }
      ],
      "name": "withdrawFromRewardPool",
      "outputs": [],
      "stateMutability": "nonpayable",
      "type": "function"
    }
  ],
  "bytecode": "0x60a06040523480156200001157600080fd5b5060405162002a4838038062002a48833981810160405281019062000037919062000124565b8073ffffffffffffffffffffffffffffffffffffffff1660808173ffffffffffffffffffffffffffffffffffffffff1681525050336000806101000a81548173ffffffffffffffffffffffffffffffffffffffff021916908373ffffffffffffffffffffffffffffffffffffffff16021790555060016002819055505062000156565b600080fd5b600073ffffffffffffffffffffffffffffffffffffffff82169050919050565b6000620000ec82620000bf565b9050919050565b620000fe81620000df565b81146200010a57600080fd5b50565b6000815190506200011e81620000f3565b92915050565b6000602082840312156200013d576200013c620000ba565b5b60006200014d848285016200010d565b91505092915050565b6080516128ba6200018e6000396000818161075a015281816109f201528181610c72015281816111b601526113a301526128ba6000f3fe608060405234801561001057600080fd5b506004361061009e5760003560e01c80636dafcea9116100665780636dafcea9146101515780638da5cb5b1461016d578063a1d2de981461018b578063f8fbafd9146101bf578063fee122ef146101db5761009e565b8063244d6daa146100a357806342b80992146100dd5780634f83b134146100f957806351ed6a301461011557806366666aa914610133575b600080fd5b6100bd60048036038101906100b891906115c5565b6101f7565b6040516100d49b9a99989796959493929190611723565b60405180910390f35b6100f760048036038101906100f291906115c5565b61037b565b005b610113600480360381019061010e91906115c5565b610892565b005b61011d610c70565b60405161012a919061185b565b60405180910390f35b61013b610c94565b6040516101489190611876565b60405180910390f35b61016b600480360381019061016691906119eb565b610c9a565b005b61017561104d565b6040516101829190611afa565b60405180910390f35b6101a560048036038101906101a09190611b41565b611071565b6040516101b6959493929190611b81565b60405180910390f35b6101d960048036038101906101d491906115c5565b6110e1565b005b6101f560048036038101906101f091906115c5565b6112b3565b005b600360205280600052604060002060009150905080600001549080600101805461022090611c03565b80601f016020809104026020016040519081016040528092919081815260200182805461024c90611c03565b80156102995780601f1061026e57610100808354040283529160200191610299565b820191906000526020600020905b81548152906001019060200180831161027c57829003601f168201915b5050505050908060020160009054906101000a900460ff16908060030154908060040154908060050154908060060154908060070154908060080154908060090180546102e590611c03565b80601f016020809104026020016040519081016040528092919081815260200182805461031190611c03565b801561035e5780601f106103335761010080835404028352916020019161035e565b820191906000526020600020905b81548152906001019060200180831161034157829003601f168201915b50505050509080600a0160009054906101000a900460ff1690508b565b6000600460003373ffffffffffffffffffffffffffffffffffffffff1673ffffffffffffffffffffffffffffffffffffffff168152602001908152602001600020600083815260200190815260200160002090508060040160009054906101000a900460ff16610420576040517f08c379a000000000000000000000000000000000000000000000000000000000815260040161041790611c80565b60405180910390fd5b600060036000848152602001908152602001600020604051806101600160405290816000820154815260200160018201805461045b90611c03565b80601f016020809104026020016040519081016040528092919081815260200182805461048790611c03565b80156104d45780601f106104a9576101008083540402835291602001916104d4565b820191906000526020600020905b8154815290600101906020018083116104b757829003601f168201915b505050505081526020016002820160009054906101000a900460ff16600181111561050257610501611691565b5b600181111561051457610513611691565b5b815260200160038201548152602001600482015481526020016005820154815260200160068201548152602001600782015481526020016008820154815260200160098201805461056490611c03565b80601f016020809104026020016040519081016040528092919081815260200182805461059090611c03565b80156105dd5780601f106105b2576101008083540402835291602001916105dd565b820191906000526020600020905b8154815290600101906020018083116105c057829003601f168201915b50505050508152602001600a820160009054906101000a900460ff16151515158152505090506000806106aa846040518060a00160405290816000820160009054906101000a900473ffffffffffffffffffffffffffffffffffffffff1673ffffffffffffffffffffffffffffffffffffffff1673ffffffffffffffffffffffffffffffffffffffff1681526020016001820154815260200160028201548152602001600382015481526020016004820160009054906101000a900460ff161515151581525050846114a5565b9150915060008111156106d55780600160008282546106c99190611ccf565b92505081905550610704565b6000836101000151905080600154106107025780600160008282546106fa9190611d03565b925050819055505b505b60008460040160006101000a81548160ff02191690831515021790555060036000868152602001908152602001600020600401600081548092919061074890611d37565b9190505550600082111561083a5760007f000000000000000000000000000000000000000000000000000000000000000073ffffffffffffffffffffffffffffffffffffffff1663a9059cbb33856040518363ffffffff1660e01b81526004016107b3929190611d60565b6020604051808303816000875af11580156107d2573d6000803e3d6000fd5b505050506040513d601f19601f820116820180604052508101906107f69190611db5565b905080610838576040517f08c379a000000000000000000000000000000000000000000000000000000000815260040161082f90611e2e565b60405180910390fd5b505b3373ffffffffffffffffffffffffffffffffffffffff16857fde55f7566d7b3a9cd543c6185704ffa9d4bea43a4e6e0a10a2d88361ccfd1f538484604051610883929190611e4e565b60405180910390a35050505050565b600060036000838152602001908152602001600020905080600a0160009054906101000a900460ff166108fa576040517f08c379a00000000000000000000000000000000000000000000000000000000081526004016108f190611ec3565b60405180910390fd5b8060030154816004015410610944576040517f08c379a000000000000000000000000000000000000000000000000000000000815260040161093b90611f2f565b60405180910390fd5b600460003373ffffffffffffffffffffffffffffffffffffffff1673ffffffffffffffffffffffffffffffffffffffff168152602001908152602001600020600083815260200190815260200160002060040160009054906101000a900460ff16156109e5576040517f08c379a00000000000000000000000000000000000000000000000000000000081526004016109dc90611f9b565b60405180910390fd5b60008160050154905060007f000000000000000000000000000000000000000000000000000000000000000073ffffffffffffffffffffffffffffffffffffffff166323b872dd3330856040518463ffffffff1660e01b8152600401610a4d93929190611fbb565b6020604051808303816000875af1158015610a6c573d6000803e3d6000fd5b505050506040513d601f19601f82011682018060405250810190610a909190611db5565b905080610ad2576040517f08c379a0000000000000000000000000000000000000000000000000000000008152600401610ac990612064565b60405180910390fd5b826004016000815480929190610ae790612084565b91905055506040518060a001604052803373ffffffffffffffffffffffffffffffffffffffff16815260200185815260200142815260200183815260200160011515815250600460003373ffffffffffffffffffffffffffffffffffffffff1673ffffffffffffffffffffffffffffffffffffffff168152602001908152602001600020600086815260200190815260200160002060008201518160000160006101000a81548173ffffffffffffffffffffffffffffffffffffffff021916908373ffffffffffffffffffffffffffffffffffffffff16021790555060208201518160010155604082015181600201556060820151816003015560808201518160040160006101000a81548160ff0219169083151502179055509050506000836006015442610c169190611ccf565b90503373ffffffffffffffffffffffffffffffffffffffff16857f0a5c57a86a64c487785b419f917fbf5a89cb805712ff57b289285fe5bf88543b8584604051610c61929190611e4e565b60405180910390a35050505050565b7f000000000000000000000000000000000000000000000000000000000000000081565b60015481565b60008054906101000a900473ffffffffffffffffffffffffffffffffffffffff1673ffffffffffffffffffffffffffffffffffffffff163373ffffffffffffffffffffffffffffffffffffffff1614610d28576040517f08c379a0000000000000000000000000000000000000000000000000000000008152600401610d1f90612118565b60405180910390fd5b6000885111610d6c576040517f08c379a0000000000000000000000000000000000000000000000000000000008152600401610d6390612184565b60405180910390fd5b60008511610daf576040517f08c379a0000000000000000000000000000000000000000000000000000000008152600401610da6906121f0565b60405180910390fd5b60008411610df2576040517f08c379a0000000000000000000000000000000000000000000000000000000008152600401610de990612282565b60405180910390fd5b60006001811115610e0657610e05611691565b5b876001811115610e1957610e18611691565b5b03610e665760018614610e61576040517f08c379a0000000000000000000000000000000000000000000000000000000008152600401610e5890612314565b60405180910390fd5b610eaa565b60008611610ea9576040517f08c379a0000000000000000000000000000000000000000000000000000000008152600401610ea0906123a6565b60405180910390fd5b5b600060025490506040518061016001604052808281526020018a8152602001896001811115610edc57610edb611691565b5b8152602001888152602001600081526020018781526020018681526020018581526020018481526020018381526020016001151581525060036000838152602001908152602001600020600082015181600001556020820151816001019081610f459190612568565b5060408201518160020160006101000a81548160ff02191690836001811115610f7157610f70611691565b5b0217905550606082015181600301556080820151816004015560a0820151816005015560c0820151816006015560e082015181600701556101008201518160080155610120820151816009019081610fc99190612568565b5061014082015181600a0160006101000a81548160ff0219169083151502179055509050506002600081548092919061100190612084565b9190505550807fa6e83fb5b4d1db3b22f561ba4629fc975af1bd95c0ae6f8c4568f4e37024d3d18a888a60405161103a9392919061263a565b60405180910390a2505050505050505050565b60008054906101000a900473ffffffffffffffffffffffffffffffffffffffff1681565b6004602052816000526040600020602052806000526040600020600091509150508060000160009054906101000a900473ffffffffffffffffffffffffffffffffffffffff16908060010154908060020154908060030154908060040160009054906101000a900460ff16905085565b60008054906101000a900473ffffffffffffffffffffffffffffffffffffffff1673ffffffffffffffffffffffffffffffffffffffff163373ffffffffffffffffffffffffffffffffffffffff161461116f576040517f08c379a000000000000000000000000000000000000000000000000000000000815260040161116690612118565b60405180910390fd5b600081116111b2576040517f08c379a00000000000000000000000000000000000000000000000000000000081526004016111a9906126c4565b60405180910390fd5b60007f000000000000000000000000000000000000000000000000000000000000000073ffffffffffffffffffffffffffffffffffffffff166323b872dd3330856040518463ffffffff1660e01b815260040161121193929190611fbb565b6020604051808303816000875af1158015611230573d6000803e3d6000fd5b505050506040513d601f19601f820116820180604052508101906112549190611db5565b905080611296576040517f08c379a000000000000000000000000000000000000000000000000000000000815260040161128d90612730565b60405180910390fd5b81600160008282546112a89190611ccf565b925050819055505050565b60008054906101000a900473ffffffffffffffffffffffffffffffffffffffff1673ffffffffffffffffffffffffffffffffffffffff163373ffffffffffffffffffffffffffffffffffffffff1614611341576040517f08c379a000000000000000000000000000000000000000000000000000000000815260040161133890612118565b60405180910390fd5b600154811115611386576040517f08c379a000000000000000000000000000000000000000000000000000000000815260040161137d906127c2565b60405180910390fd5b80600160008282546113989190611d03565b9250508190555060007f000000000000000000000000000000000000000000000000000000000000000073ffffffffffffffffffffffffffffffffffffffff1663a9059cbb60008054906101000a900473ffffffffffffffffffffffffffffffffffffffff16846040518363ffffffff1660e01b815260040161141c929190611d60565b6020604051808303816000875af115801561143b573d6000803e3d6000fd5b505050506040513d601f19601f8201168201806040525081019061145f9190611db5565b9050806114a1576040517f08c379a000000000000000000000000000000000000000000000000000000000815260040161149890612730565b60405180910390fd5b5050565b60008060008460400151426114ba9190611d03565b90506000856060015190508460c001518211611504576000856101000151905080600154106114f65780826114ef9190611ccf565b94506114fa565b8194505b6000935050611572565b60008560c00151836115169190611d03565b9050600060016201518060018461152d9190611d03565b6115379190612811565b6115419190611ccf565b90508660e00151816115539190612842565b945082851115611561578294505b848361156d9190611d03565b955050505b50509250929050565b6000604051905090565b600080fd5b600080fd5b6000819050919050565b6115a28161158f565b81146115ad57600080fd5b50565b6000813590506115bf81611599565b92915050565b6000602082840312156115db576115da611585565b5b60006115e9848285016115b0565b91505092915050565b6115fb8161158f565b82525050565b600081519050919050565b600082825260208201905092915050565b60005b8381101561163b578082015181840152602081019050611620565b60008484015250505050565b6000601f19601f8301169050919050565b600061166382611601565b61166d818561160c565b935061167d81856020860161161d565b61168681611647565b840191505092915050565b7f4e487b7100000000000000000000000000000000000000000000000000000000600052602160045260246000fd5b600281106116d1576116d0611691565b5b50565b60008190506116e2826116c0565b919050565b60006116f2826116d4565b9050919050565b611702816116e7565b82525050565b60008115159050919050565b61171d81611708565b82525050565b600061016082019050611739600083018e6115f2565b818103602083015261174b818d611658565b905061175a604083018c6116f9565b611767606083018b6115f2565b611774608083018a6115f2565b61178160a08301896115f2565b61178e60c08301886115f2565b61179b60e08301876115f2565b6117a96101008301866115f2565b8181036101208301526117bc8185611658565b90506117cc610140830184611714565b9c9b505050505050505050505050565b600073ffffffffffffffffffffffffffffffffffffffff82169050919050565b6000819050919050565b600061182161181c611817846117dc565b6117fc565b6117dc565b9050919050565b600061183382611806565b9050919050565b600061184582611828565b9050919050565b6118558161183a565b82525050565b6000602082019050611870600083018461184c565b92915050565b600060208201905061188b60008301846115f2565b92915050565b600080fd5b600080fd5b7f4e487b7100000000000000000000000000000000000000000000000000000000600052604160045260246000fd5b6118d382611647565b810181811067ffffffffffffffff821117156118f2576118f161189b565b5b80604052505050565b600061190561157b565b905061191182826118ca565b919050565b600067ffffffffffffffff8211156119315761193061189b565b5b61193a82611647565b9050602081019050919050565b82818337600083830152505050565b600061196961196484611916565b6118fb565b90508281526020810184848401111561198557611984611896565b5b611990848285611947565b509392505050565b600082601f8301126119ad576119ac611891565b5b81356119bd848260208601611956565b91505092915050565b600281106119d357600080fd5b50565b6000813590506119e5816119c6565b92915050565b600080600080600080600080610100898b031215611a0c57611a0b611585565b5b600089013567ffffffffffffffff811115611a2a57611a2961158a565b5b611a368b828c01611998565b9850506020611a478b828c016119d6565b9750506040611a588b828c016115b0565b9650506060611a698b828c016115b0565b9550506080611a7a8b828c016115b0565b94505060a0611a8b8b828c016115b0565b93505060c0611a9c8b828c016115b0565b92505060e089013567ffffffffffffffff811115611abd57611abc61158a565b5b611ac98b828c01611998565b9150509295985092959890939650565b6000611ae4826117dc565b9050919050565b611af481611ad9565b82525050565b6000602082019050611b0f6000830184611aeb565b92915050565b611b1e81611ad9565b8114611b2957600080fd5b50565b600081359050611b3b81611b15565b92915050565b60008060408385031215611b5857611b57611585565b5b6000611b6685828601611b2c565b9250506020611b77858286016115b0565b9150509250929050565b600060a082019050611b966000830188611aeb565b611ba360208301876115f2565b611bb060408301866115f2565b611bbd60608301856115f2565b611bca6080830184611714565b9695505050505050565b7f4e487b7100000000000000000000000000000000000000000000000000000000600052602260045260246000fd5b60006002820490506001821680611c1b57607f821691505b602082108103611c2e57611c2d611bd4565b5b50919050565b7f596f7520617265206e6f7420626f72726f77696e672074686973206974656d00600082015250565b6000611c6a601f8361160c565b9150611c7582611c34565b602082019050919050565b60006020820190508181036000830152611c9981611c5d565b9050919050565b7f4e487b7100000000000000000000000000000000000000000000000000000000600052601160045260246000fd5b6000611cda8261158f565b9150611ce58361158f565b9250828201905080821115611cfd57611cfc611ca0565b5b92915050565b6000611d0e8261158f565b9150611d198361158f565b9250828203905081811115611d3157611d30611ca0565b5b92915050565b6000611d428261158f565b915060008203611d5557611d54611ca0565b5b600182039050919050565b6000604082019050611d756000830185611aeb565b611d8260208301846115f2565b9392505050565b611d9281611708565b8114611d9d57600080fd5b50565b600081519050611daf81611d89565b92915050565b600060208284031215611dcb57611dca611585565b5b6000611dd984828501611da0565b91505092915050565b7f526566756e64207472616e73666572206661696c656400000000000000000000600082015250565b6000611e1860168361160c565b9150611e2382611de2565b602082019050919050565b60006020820190508181036000830152611e4781611e0b565b9050919050565b6000604082019050611e6360008301856115f2565b611e7060208301846115f2565b9392505050565b7f5265736f75726365206973206e6f7420617661696c61626c6500000000000000600082015250565b6000611ead60198361160c565b9150611eb882611e77565b602082019050919050565b60006020820190508181036000830152611edc81611ea0565b9050919050565b7f5265736f75726365206174206d61782063617061636974790000000000000000600082015250565b6000611f1960188361160c565b9150611f2482611ee3565b602082019050919050565b60006020820190508181036000830152611f4881611f0c565b9050919050565b7f596f752061726520616c726561647920626f72726f77696e6720746869730000600082015250565b6000611f85601e8361160c565b9150611f9082611f4f565b602082019050919050565b60006020820190508181036000830152611fb481611f78565b9050919050565b6000606082019050611fd06000830186611aeb565b611fdd6020830185611aeb565b611fea60408301846115f2565b949350505050565b7f546f6b656e207472616e73666572206661696c65642e202844696420796f752060008201527f617070726f76653f290000000000000000000000000000000000000000000000602082015250565b600061204e60298361160c565b915061205982611ff2565b604082019050919050565b6000602082019050818103600083015261207d81612041565b9050919050565b600061208f8261158f565b91507fffffffffffffffffffffffffffffffffffffffffffffffffffffffffffffffff82036120c1576120c0611ca0565b5b600182019050919050565b7f43616c6c6572206973206e6f7420746865206f776e6572000000000000000000600082015250565b600061210260178361160c565b915061210d826120cc565b602082019050919050565b60006020820190508181036000830152612131816120f5565b9050919050565b7f4e616d652063616e6e6f7420626520656d707479000000000000000000000000600082015250565b600061216e60148361160c565b915061217982612138565b602082019050919050565b6000602082019050818103600083015261219d81612161565b9050919050565b7f5374616b65206d7573742062652067726561746572207468616e207a65726f00600082015250565b60006121da601f8361160c565b91506121e5826121a4565b602082019050919050565b60006020820190508181036000830152612209816121cd565b9050919050565b7f4475726174696f6e206d7573742062652067726561746572207468616e207a6560008201527f726f000000000000000000000000000000000000000000000000000000000000602082015250565b600061226c60228361160c565b915061227782612210565b604082019050919050565b6000602082019050818103600083015261229b8161225f565b9050919050565b7f506879736963616c206974656d73206d7573742068617665206d6178426f727260008201527f6f7773203d203100000000000000000000000000000000000000000000000000602082015250565b60006122fe60278361160c565b9150612309826122a2565b604082019050919050565b6000602082019050818103600083015261232d816122f1565b9050919050565b7f4469676974616c206974656d73206d75737420616c6c6f77206174206c65617360008201527f74203120626f72726f7700000000000000000000000000000000000000000000602082015250565b6000612390602a8361160c565b915061239b82612334565b604082019050919050565b600060208201905081810360008301526123bf81612383565b9050919050565b60008190508160005260206000209050919050565b60006020601f8301049050919050565b600082821b905092915050565b6000600883026124287fffffffffffffffffffffffffffffffffffffffffffffffffffffffffffffffff826123eb565b61243286836123eb565b95508019841693508086168417925050509392505050565b600061246561246061245b8461158f565b6117fc565b61158f565b9050919050565b6000819050919050565b61247f8361244a565b61249361248b8261246c565b8484546123f8565b825550505050565b600090565b6124a861249b565b6124b3818484612476565b505050565b5b818110156124d7576124cc6000826124a0565b6001810190506124b9565b5050565b601f82111561251c576124ed816123c6565b6124f6846123db565b81016020851015612505578190505b612519612511856123db565b8301826124b8565b50505b505050565b600082821c905092915050565b600061253f60001984600802612521565b1980831691505092915050565b6000612558838361252e565b9150826002028217905092915050565b61257182611601565b67ffffffffffffffff81111561258a5761258961189b565b5b6125948254611c03565b61259f8282856124db565b600060209050601f8311600181146125d257600084156125c0578287015190505b6125ca858261254c565b865550612632565b601f1984166125e0866123c6565b60005b82811015612608578489015182556001820191506020850194506020810190506125e3565b868310156126255784890151612621601f89168261252e565b8355505b6001600288020188555050505b505050505050565b600060608201905081810360008301526126548186611658565b905061266360208301856115f2565b61267060408301846115f2565b949350505050565b7f416d6f756e74206d7573742062652067726561746572207468616e2030000000600082015250565b60006126ae601d8361160c565b91506126b982612678565b602082019050919050565b600060208201905081810360008301526126dd816126a1565b9050919050565b7f546f6b656e207472616e73666572206661696c65640000000000000000000000600082015250565b600061271a60158361160c565b9150612725826126e4565b602082019050919050565b600060208201905081810360008301526127498161270d565b9050919050565b7f496e73756666696369656e742066756e647320696e2072657761726420706f6f60008201527f6c00000000000000000000000000000000000000000000000000000000000000602082015250565b60006127ac60218361160c565b91506127b782612750565b604082019050919050565b600060208201905081810360008301526127db8161279f565b9050919050565b7f4e487b7100000000000000000000000000000000000000000000000000000000600052601260045260246000fd5b600061281c8261158f565b91506128278361158f565b925082612837576128366127e2565b5b828204905092915050565b600061284d8261158f565b91506128588361158f565b92508282026128668161158f565b9150828204841483151761287d5761287c611ca0565b5b509291505056fea2646970667358221220a7aa918e355b967bd905ff5d6e0d639d23a681fca4996a81c7eb4adf383bafaa64736f6c63430008140033",
  "linkReferences": {},
  "deployedLinkReferences": {}
}